{
  "contractName": "Business",
  "abi": [
    {
      "constant": true,
      "inputs": [
        {
          "name": "",
          "type": "uint256"
        }
      ],
      "name": "orders",
      "outputs": [
        {
          "name": "payment",
          "type": "uint256"
        },
        {
          "name": "productId",
          "type": "uint256"
        },
        {
          "name": "quantity",
          "type": "uint256"
        },
        {
          "name": "price",
          "type": "uint256"
        },
        {
          "name": "unit",
          "type": "string"
        },
        {
          "name": "mode",
          "type": "string"
        },
        {
          "name": "buyer",
          "type": "address"
        },
        {
          "name": "seller",
          "type": "address"
        }
      ],
      "payable": false,
      "stateMutability": "view",
      "type": "function"
    },
    {
      "constant": true,
      "inputs": [],
      "name": "admin",
      "outputs": [
        {
          "name": "",
          "type": "address"
        }
      ],
      "payable": false,
      "stateMutability": "view",
      "type": "function"
    },
    {
      "inputs": [],
      "payable": false,
      "stateMutability": "nonpayable",
      "type": "constructor"
    },
    {
      "anonymous": false,
      "inputs": [
        {
          "indexed": false,
          "name": "id",
          "type": "uint256"
        },
        {
          "indexed": false,
          "name": "payment",
          "type": "uint256"
        },
        {
          "indexed": false,
          "name": "productId",
          "type": "uint256"
        },
        {
          "indexed": false,
          "name": "quantity",
          "type": "uint256"
        },
        {
          "indexed": false,
          "name": "price",
          "type": "uint256"
        },
        {
          "indexed": false,
          "name": "unit",
          "type": "string"
        },
        {
          "indexed": false,
          "name": "mode",
          "type": "string"
        },
        {
          "indexed": false,
          "name": "buyer",
          "type": "address"
        },
        {
          "indexed": false,
          "name": "seller",
          "type": "address"
        }
      ],
      "name": "OrderLog",
      "type": "event"
    },
    {
      "constant": true,
      "inputs": [],
      "name": "getOrdersCount",
      "outputs": [
        {
          "name": "",
          "type": "uint256"
        }
      ],
      "payable": false,
      "stateMutability": "view",
      "type": "function"
    },
    {
      "constant": false,
      "inputs": [
        {
          "name": "productId",
          "type": "uint256"
        },
        {
          "name": "quantity",
          "type": "uint256"
        },
        {
          "name": "price",
          "type": "uint256"
        },
        {
          "name": "unit",
          "type": "string"
        }
      ],
      "name": "createBid",
      "outputs": [],
      "payable": true,
      "stateMutability": "payable",
      "type": "function"
    },
    {
      "constant": false,
      "inputs": [
        {
          "name": "id",
          "type": "uint256"
        }
      ],
      "name": "acceptBid",
      "outputs": [],
      "payable": false,
      "stateMutability": "nonpayable",
      "type": "function"
    },
    {
      "constant": false,
      "inputs": [
        {
          "name": "productId",
          "type": "uint256"
        },
        {
          "name": "quantity",
          "type": "uint256"
        },
        {
          "name": "price",
          "type": "uint256"
        },
        {
          "name": "unit",
          "type": "string"
        }
      ],
      "name": "createQuote",
      "outputs": [],
      "payable": false,
      "stateMutability": "nonpayable",
      "type": "function"
    },
    {
      "constant": false,
      "inputs": [
        {
          "name": "id",
          "type": "uint256"
        }
      ],
      "name": "acceptQuote",
      "outputs": [],
      "payable": true,
      "stateMutability": "payable",
      "type": "function"
    },
    {
      "constant": false,
      "inputs": [
        {
          "name": "id",
          "type": "uint256"
        }
      ],
      "name": "completeOrder",
      "outputs": [],
      "payable": false,
      "stateMutability": "nonpayable",
      "type": "function"
    },
    {
      "constant": false,
      "inputs": [
        {
          "name": "id",
          "type": "uint256"
        }
      ],
      "name": "cancelOrder",
      "outputs": [],
      "payable": false,
      "stateMutability": "nonpayable",
      "type": "function"
    }
  ],
  "bytecode": "0x608060405234801561001057600080fd5b5033600160006101000a81548173ffffffffffffffffffffffffffffffffffffffff021916908373ffffffffffffffffffffffffffffffffffffffff160217905550611bee806100616000396000f300608060405260043610610099576000357c0100000000000000000000000000000000000000000000000000000000900463ffffffff1680630830e4961461009e5780631312ec4a146101185780632b1fd58a1461019f578063514fcac7146101cc5780635d7ffe7b146101f9578063a85c38ef14610219578063b5b3b051146103ad578063b6adaaff146103d8578063f851a44014610405575b600080fd5b610116600480360381019080803590602001909291908035906020019092919080359060200190929190803590602001908201803590602001908080601f016020809104026020016040519081016040528093929190818152602001838380828437820191505050505050919291929050505061045c565b005b34801561012457600080fd5b5061019d600480360381019080803590602001909291908035906020019092919080359060200190929190803590602001908201803590602001908080601f01602080910402602001604051908101604052809392919081815260200183838082843782019150505050505091929192905050506107eb565b005b3480156101ab57600080fd5b506101ca60048036038101908080359060200190929190505050610b7b565b005b3480156101d857600080fd5b506101f760048036038101908080359060200190929190505050610ec0565b005b610217600480360381019080803590602001909291905050506111d2565b005b34801561022557600080fd5b5061024460048036038101908080359060200190929190505050611520565b6040518089815260200188815260200187815260200186815260200180602001806020018573ffffffffffffffffffffffffffffffffffffffff1673ffffffffffffffffffffffffffffffffffffffff1681526020018473ffffffffffffffffffffffffffffffffffffffff1673ffffffffffffffffffffffffffffffffffffffff168152602001838103835287818151815260200191508051906020019080838360005b838110156103045780820151818401526020810190506102e9565b50505050905090810190601f1680156103315780820380516001836020036101000a031916815260200191505b50838103825286818151815260200191508051906020019080838360005b8381101561036a57808201518184015260208101905061034f565b50505050905090810190601f1680156103975780820380516001836020036101000a031916815260200191505b509a505050505050505050505060405180910390f35b3480156103b957600080fd5b506103c26116e7565b6040518082815260200191505060405180910390f35b3480156103e457600080fd5b50610403600480360381019080803590602001909291905050506116f3565b005b34801561041157600080fd5b5061041a611a05565b604051808273ffffffffffffffffffffffffffffffffffffffff1673ffffffffffffffffffffffffffffffffffffffff16815260200191505060405180910390f35b610464611a2b565b6000610100604051908101604052803481526020018781526020018681526020018581526020018481526020016040805190810160405280600981526020017f726571756573746564000000000000000000000000000000000000000000000081525081526020013373ffffffffffffffffffffffffffffffffffffffff168152602001600073ffffffffffffffffffffffffffffffffffffffff168152509150600160008390806001815401808255809150509060018203906000526020600020906008020160009091929091909150600082015181600001556020820151816001015560408201518160020155606082015181600301556080820151816004019080519060200190610579929190611a9d565b5060a0820151816005019080519060200190610596929190611a9d565b5060c08201518160060160006101000a81548173ffffffffffffffffffffffffffffffffffffffff021916908373ffffffffffffffffffffffffffffffffffffffff16021790555060e08201518160070160006101000a81548173ffffffffffffffffffffffffffffffffffffffff021916908373ffffffffffffffffffffffffffffffffffffffff16021790555050500390507f059107bd8bfeac88aee6691e575d1e0775c863063ebc736d942363ac983eeede81836000015184602001518560400151866060015187608001518860a001518960c001518a60e00151604051808a815260200189815260200188815260200187815260200186815260200180602001806020018573ffffffffffffffffffffffffffffffffffffffff1673ffffffffffffffffffffffffffffffffffffffff1681526020018473ffffffffffffffffffffffffffffffffffffffff1673ffffffffffffffffffffffffffffffffffffffff168152602001838103835287818151815260200191508051906020019080838360005b8381101561073a57808201518184015260208101905061071f565b50505050905090810190601f1680156107675780820380516001836020036101000a031916815260200191505b50838103825286818151815260200191508051906020019080838360005b838110156107a0578082015181840152602081019050610785565b50505050905090810190601f1680156107cd5780820380516001836020036101000a031916815260200191505b509b50505050505050505050505060405180910390a1505050505050565b6107f3611a2b565b600061010060405190810160405280600081526020018781526020018681526020018581526020018481526020016040805190810160405280600981526020017f72657175657374656400000000000000000000000000000000000000000000008152508152602001600073ffffffffffffffffffffffffffffffffffffffff1681526020013373ffffffffffffffffffffffffffffffffffffffff168152509150600160008390806001815401808255809150509060018203906000526020600020906008020160009091929091909150600082015181600001556020820151816001015560408201518160020155606082015181600301556080820151816004019080519060200190610909929190611a9d565b5060a0820151816005019080519060200190610926929190611a9d565b5060c08201518160060160006101000a81548173ffffffffffffffffffffffffffffffffffffffff021916908373ffffffffffffffffffffffffffffffffffffffff16021790555060e08201518160070160006101000a81548173ffffffffffffffffffffffffffffffffffffffff021916908373ffffffffffffffffffffffffffffffffffffffff16021790555050500390507f059107bd8bfeac88aee6691e575d1e0775c863063ebc736d942363ac983eeede81836000015184602001518560400151866060015187608001518860a001518960c001518a60e00151604051808a815260200189815260200188815260200187815260200186815260200180602001806020018573ffffffffffffffffffffffffffffffffffffffff1673ffffffffffffffffffffffffffffffffffffffff1681526020018473ffffffffffffffffffffffffffffffffffffffff1673ffffffffffffffffffffffffffffffffffffffff168152602001838103835287818151815260200191508051906020019080838360005b83811015610aca578082015181840152602081019050610aaf565b50505050905090810190601f168015610af75780820380516001836020036101000a031916815260200191505b50838103825286818151815260200191508051906020019080838360005b83811015610b30578082015181840152602081019050610b15565b50505050905090810190601f168015610b5d5780820380516001836020036101000a031916815260200191505b509b50505050505050505050505060405180910390a1505050505050565b60008082815481101515610b8b57fe5b906000526020600020906008020190508060060160009054906101000a900473ffffffffffffffffffffffffffffffffffffffff1673ffffffffffffffffffffffffffffffffffffffff163373ffffffffffffffffffffffffffffffffffffffff1614151515610bfa57600080fd5b6040805190810160405280600881526020017f6163636570746564000000000000000000000000000000000000000000000000815250816005019080519060200190610c47929190611b1d565b50338160070160006101000a81548173ffffffffffffffffffffffffffffffffffffffff021916908373ffffffffffffffffffffffffffffffffffffffff1602179055507f059107bd8bfeac88aee6691e575d1e0775c863063ebc736d942363ac983eeede82826000015483600101548460020154856003015486600401876005018860060160009054906101000a900473ffffffffffffffffffffffffffffffffffffffff168960070160009054906101000a900473ffffffffffffffffffffffffffffffffffffffff16604051808a815260200189815260200188815260200187815260200186815260200180602001806020018573ffffffffffffffffffffffffffffffffffffffff1673ffffffffffffffffffffffffffffffffffffffff1681526020018473ffffffffffffffffffffffffffffffffffffffff1673ffffffffffffffffffffffffffffffffffffffff168152602001838103835287818154600181600116156101000203166002900481526020019150805460018160011615610100020316600290048015610e225780601f10610df757610100808354040283529160200191610e22565b820191906000526020600020905b815481529060010190602001808311610e0557829003601f168201915b5050838103825286818154600181600116156101000203166002900481526020019150805460018160011615610100020316600290048015610ea55780601f10610e7a57610100808354040283529160200191610ea5565b820191906000526020600020905b815481529060010190602001808311610e8857829003601f168201915b50509b50505050505050505050505060405180910390a15050565b60008082815481101515610ed057fe5b906000526020600020906008020190506040805190810160405280600981526020017f63616e63656c6c65640000000000000000000000000000000000000000000000815250816005019080519060200190610f2d929190611b1d565b508060060160009054906101000a900473ffffffffffffffffffffffffffffffffffffffff1673ffffffffffffffffffffffffffffffffffffffff166108fc82600001549081150290604051600060405180830381858888f19350505050158015610f9c573d6000803e3d6000fd5b507f059107bd8bfeac88aee6691e575d1e0775c863063ebc736d942363ac983eeede82826000015483600101548460020154856003015486600401876005018860060160009054906101000a900473ffffffffffffffffffffffffffffffffffffffff168960070160009054906101000a900473ffffffffffffffffffffffffffffffffffffffff16604051808a815260200189815260200188815260200187815260200186815260200180602001806020018573ffffffffffffffffffffffffffffffffffffffff1673ffffffffffffffffffffffffffffffffffffffff1681526020018473ffffffffffffffffffffffffffffffffffffffff1673ffffffffffffffffffffffffffffffffffffffff1681526020018381038352878181546001816001161561010002031660029004815260200191508054600181600116156101000203166002900480156111345780601f1061110957610100808354040283529160200191611134565b820191906000526020600020905b81548152906001019060200180831161111757829003601f168201915b50508381038252868181546001816001161561010002031660029004815260200191508054600181600116156101000203166002900480156111b75780601f1061118c576101008083540402835291602001916111b7565b820191906000526020600020905b81548152906001019060200180831161119a57829003601f168201915b50509b50505050505050505050505060405180910390a15050565b600080828154811015156111e257fe5b906000526020600020906008020190508060070160009054906101000a900473ffffffffffffffffffffffffffffffffffffffff1673ffffffffffffffffffffffffffffffffffffffff163373ffffffffffffffffffffffffffffffffffffffff161415151561125157600080fd5b6040805190810160405280600881526020017f616363657074656400000000000000000000000000000000000000000000000081525081600501908051906020019061129e929190611b1d565b50338160060160006101000a81548173ffffffffffffffffffffffffffffffffffffffff021916908373ffffffffffffffffffffffffffffffffffffffff1602179055503481600001819055507f059107bd8bfeac88aee6691e575d1e0775c863063ebc736d942363ac983eeede82826000015483600101548460020154856003015486600401876005018860060160009054906101000a900473ffffffffffffffffffffffffffffffffffffffff168960070160009054906101000a900473ffffffffffffffffffffffffffffffffffffffff16604051808a815260200189815260200188815260200187815260200186815260200180602001806020018573ffffffffffffffffffffffffffffffffffffffff1673ffffffffffffffffffffffffffffffffffffffff1681526020018473ffffffffffffffffffffffffffffffffffffffff1673ffffffffffffffffffffffffffffffffffffffff1681526020018381038352878181546001816001161561010002031660029004815260200191508054600181600116156101000203166002900480156114825780601f1061145757610100808354040283529160200191611482565b820191906000526020600020905b81548152906001019060200180831161146557829003601f168201915b50508381038252868181546001816001161561010002031660029004815260200191508054600181600116156101000203166002900480156115055780601f106114da57610100808354040283529160200191611505565b820191906000526020600020905b8154815290600101906020018083116114e857829003601f168201915b50509b50505050505050505050505060405180910390a15050565b60008181548110151561152f57fe5b9060005260206000209060080201600091509050806000015490806001015490806002015490806003015490806004018054600181600116156101000203166002900480601f0160208091040260200160405190810160405280929190818152602001828054600181600116156101000203166002900480156115f35780601f106115c8576101008083540402835291602001916115f3565b820191906000526020600020905b8154815290600101906020018083116115d657829003601f168201915b505050505090806005018054600181600116156101000203166002900480601f0160208091040260200160405190810160405280929190818152602001828054600181600116156101000203166002900480156116915780601f1061166657610100808354040283529160200191611691565b820191906000526020600020905b81548152906001019060200180831161167457829003601f168201915b5050505050908060060160009054906101000a900473ffffffffffffffffffffffffffffffffffffffff16908060070160009054906101000a900473ffffffffffffffffffffffffffffffffffffffff16905088565b60008080549050905090565b6000808281548110151561170357fe5b906000526020600020906008020190506040805190810160405280600981526020017f636f6d706c657465640000000000000000000000000000000000000000000000815250816005019080519060200190611760929190611b1d565b508060070160009054906101000a900473ffffffffffffffffffffffffffffffffffffffff1673ffffffffffffffffffffffffffffffffffffffff166108fc82600001549081150290604051600060405180830381858888f193505050501580156117cf573d6000803e3d6000fd5b507f059107bd8bfeac88aee6691e575d1e0775c863063ebc736d942363ac983eeede82826000015483600101548460020154856003015486600401876005018860060160009054906101000a900473ffffffffffffffffffffffffffffffffffffffff168960070160009054906101000a900473ffffffffffffffffffffffffffffffffffffffff16604051808a815260200189815260200188815260200187815260200186815260200180602001806020018573ffffffffffffffffffffffffffffffffffffffff1673ffffffffffffffffffffffffffffffffffffffff1681526020018473ffffffffffffffffffffffffffffffffffffffff1673ffffffffffffffffffffffffffffffffffffffff1681526020018381038352878181546001816001161561010002031660029004815260200191508054600181600116156101000203166002900480156119675780601f1061193c57610100808354040283529160200191611967565b820191906000526020600020905b81548152906001019060200180831161194a57829003601f168201915b50508381038252868181546001816001161561010002031660029004815260200191508054600181600116156101000203166002900480156119ea5780601f106119bf576101008083540402835291602001916119ea565b820191906000526020600020905b8154815290600101906020018083116119cd57829003601f168201915b50509b50505050505050505050505060405180910390a15050565b600160009054906101000a900473ffffffffffffffffffffffffffffffffffffffff1681565b61010060405190810160405280600081526020016000815260200160008152602001600081526020016060815260200160608152602001600073ffffffffffffffffffffffffffffffffffffffff168152602001600073ffffffffffffffffffffffffffffffffffffffff1681525090565b828054600181600116156101000203166002900490600052602060002090601f016020900481019282601f10611ade57805160ff1916838001178555611b0c565b82800160010185558215611b0c579182015b82811115611b0b578251825591602001919060010190611af0565b5b509050611b199190611b9d565b5090565b828054600181600116156101000203166002900490600052602060002090601f016020900481019282601f10611b5e57805160ff1916838001178555611b8c565b82800160010185558215611b8c579182015b82811115611b8b578251825591602001919060010190611b70565b5b509050611b999190611b9d565b5090565b611bbf91905b80821115611bbb576000816000905550600101611ba3565b5090565b905600a165627a7a72305820ab25932e731c3271102f9f02a00998c37a4199b44357550709f40d07a0a56bf60029",
  "source": "pragma solidity ^0.4.2;\n\ncontract Business {\n    event OrderLog (\n        uint id,\n        uint payment,\n        uint productId,\n        uint quantity,\n        uint price,\n        string unit,\n        string mode,\n        address buyer,\n        address seller\n    );\n\n    struct Order {\n        uint payment;\n        uint productId;\n        uint quantity;\n        uint price;\n        string unit;\n        string mode;\n        address buyer;\n        address seller;\n    }\n\n    Order[] public orders;\n    address public admin;\n\n    constructor() public {\n        admin = msg.sender;\n    }\n\n    modifier restricted() {\n        require(msg.sender == admin);\n        _;\n    }\n\n    function getOrdersCount() public view returns (uint) {\n        return orders.length;\n    }\n\n    function createBid(uint productId, uint quantity, uint price, string unit) public payable {\n        Order memory bid = Order({\n            payment: msg.value,\n            productId: productId,\n            quantity: quantity,\n            price: price,\n            unit: unit,\n            mode: \"requested\",\n            buyer: msg.sender,\n            seller: 0x0000\n        });\n        uint id = orders.push(bid) - 1;\n        emit OrderLog(\n            id,\n            bid.payment,\n            bid.productId,\n            bid.quantity,\n            bid.price,\n            bid.unit,\n            bid.mode,\n            bid.buyer,\n            bid.seller\n        );\n    }\n\n    function acceptBid(uint id) public {\n        Order storage bid = orders[id];\n        require(msg.sender != bid.buyer);\n        bid.mode = \"accepted\";\n        bid.seller = msg.sender;\n        emit OrderLog(\n            id,\n            bid.payment,\n            bid.productId,\n            bid.quantity,\n            bid.price,\n            bid.unit,\n            bid.mode,\n            bid.buyer,\n            bid.seller\n        );\n    }\n\n    function createQuote(uint productId, uint quantity, uint price, string unit) public {\n        Order memory quote = Order({\n            payment: 0,\n            productId: productId,\n            quantity: quantity,\n            price: price,\n            unit: unit,\n            mode: \"requested\",\n            buyer: 0x0000,\n            seller: msg.sender\n        });\n        uint id = orders.push(quote) - 1;\n        emit OrderLog(\n            id,\n            quote.payment,\n            quote.productId,\n            quote.quantity,\n            quote.price,\n            quote.unit,\n            quote.mode,\n            quote.buyer,\n            quote.seller\n        );\n    }\n\n    function acceptQuote(uint id) public payable {\n        Order storage quote = orders[id];\n        require(msg.sender != quote.seller);\n        quote.mode = \"accepted\";\n        quote.buyer = msg.sender;\n        quote.payment = msg.value;\n        emit OrderLog(\n            id,\n            quote.payment,\n            quote.productId,\n            quote.quantity,\n            quote.price,\n            quote.unit,\n            quote.mode,\n            quote.buyer,\n            quote.seller\n        );\n    }\n\n    function completeOrder(uint id) public {\n        Order storage order = orders[id];\n        order.mode = \"completed\";\n        order.seller.transfer(order.payment);\n        emit OrderLog(\n            id,\n            order.payment,\n            order.productId,\n            order.quantity,\n            order.price,\n            order.unit,\n            order.mode,\n            order.buyer,\n            order.seller\n        );\n    }\n\n    function cancelOrder(uint id) public {\n        Order storage order = orders[id];\n        order.mode = \"cancelled\";\n        order.buyer.transfer(order.payment);\n        emit OrderLog(\n            id,\n            order.payment,\n            order.productId,\n            order.quantity,\n            order.price,\n            order.unit,\n            order.mode,\n            order.buyer,\n            order.seller\n        );\n    }\n}\n",
  "sourcePath": "/Users/marcopchen/supply-lynx/contracts/Business.sol",
  "compiler": {
    "name": "solc",
    "version": "0.4.24+commit.e67f0147.Emscripten.clang"
  },
  "schemaVersion": "2.0.0",
  "updatedAt": "2018-06-05T20:49:28.192Z"
}