{
  "contractName": "Business",
  "abi": [
    {
      "constant": true,
      "inputs": [
        {
          "name": "",
          "type": "uint256"
        }
      ],
      "name": "orders",
      "outputs": [
        {
          "name": "payment",
          "type": "uint256"
        },
        {
          "name": "productId",
          "type": "uint256"
        },
        {
          "name": "quantity",
          "type": "uint256"
        },
        {
          "name": "price",
          "type": "uint256"
        },
        {
          "name": "unit",
          "type": "string"
        },
        {
          "name": "status",
          "type": "string"
        },
        {
          "name": "buyer",
          "type": "address"
        },
        {
          "name": "seller",
          "type": "address"
        }
      ],
      "payable": false,
      "stateMutability": "view",
      "type": "function"
    },
    {
      "constant": true,
      "inputs": [],
      "name": "admin",
      "outputs": [
        {
          "name": "",
          "type": "address"
        }
      ],
      "payable": false,
      "stateMutability": "view",
      "type": "function"
    },
    {
      "inputs": [],
      "payable": false,
      "stateMutability": "nonpayable",
      "type": "constructor"
    },
    {
      "constant": true,
      "inputs": [],
      "name": "getOrdersCount",
      "outputs": [
        {
          "name": "",
          "type": "uint256"
        }
      ],
      "payable": false,
      "stateMutability": "view",
      "type": "function"
    },
    {
      "constant": false,
      "inputs": [
        {
          "name": "productId",
          "type": "uint256"
        },
        {
          "name": "quantity",
          "type": "uint256"
        },
        {
          "name": "price",
          "type": "uint256"
        },
        {
          "name": "unit",
          "type": "string"
        }
      ],
      "name": "createBid",
      "outputs": [],
      "payable": true,
      "stateMutability": "payable",
      "type": "function"
    },
    {
      "constant": false,
      "inputs": [
        {
          "name": "id",
          "type": "uint256"
        }
      ],
      "name": "acceptBid",
      "outputs": [],
      "payable": false,
      "stateMutability": "nonpayable",
      "type": "function"
    },
    {
      "constant": false,
      "inputs": [
        {
          "name": "productId",
          "type": "uint256"
        },
        {
          "name": "quantity",
          "type": "uint256"
        },
        {
          "name": "price",
          "type": "uint256"
        },
        {
          "name": "unit",
          "type": "string"
        }
      ],
      "name": "createQuote",
      "outputs": [],
      "payable": false,
      "stateMutability": "nonpayable",
      "type": "function"
    },
    {
      "constant": false,
      "inputs": [
        {
          "name": "id",
          "type": "uint256"
        }
      ],
      "name": "acceptQuote",
      "outputs": [],
      "payable": true,
      "stateMutability": "payable",
      "type": "function"
    },
    {
      "constant": false,
      "inputs": [
        {
          "name": "id",
          "type": "uint256"
        }
      ],
      "name": "completeOrder",
      "outputs": [],
      "payable": false,
      "stateMutability": "nonpayable",
      "type": "function"
    },
    {
      "constant": false,
      "inputs": [
        {
          "name": "id",
          "type": "uint256"
        }
      ],
      "name": "cancelOrder",
      "outputs": [],
      "payable": false,
      "stateMutability": "nonpayable",
      "type": "function"
    }
  ],
  "bytecode": "0x608060405234801561001057600080fd5b5033600160006101000a81548173ffffffffffffffffffffffffffffffffffffffff021916908373ffffffffffffffffffffffffffffffffffffffff160217905550610efa806100616000396000f300608060405260043610610099576000357c0100000000000000000000000000000000000000000000000000000000900463ffffffff1680630830e4961461009e5780631312ec4a146101185780632b1fd58a1461019f578063514fcac7146101cc5780635d7ffe7b146101f9578063a85c38ef14610219578063b5b3b051146103ad578063b6adaaff146103d8578063f851a44014610405575b600080fd5b610116600480360381019080803590602001909291908035906020019092919080359060200190929190803590602001908201803590602001908080601f016020809104026020016040519081016040528093929190818152602001838380828437820191505050505050919291929050505061045c565b005b34801561012457600080fd5b5061019d600480360381019080803590602001909291908035906020019092919080359060200190929190803590602001908201803590602001908080601f0160208091040260200160405190810160405280939291908181526020018383808284378201915050505050509192919290505050610632565b005b3480156101ab57600080fd5b506101ca60048036038101908080359060200190929190505050610809565b005b3480156101d857600080fd5b506101f7600480360381019080803590602001909291905050506108be565b005b6102176004803603810190808035906020019092919050505061099f565b005b34801561022557600080fd5b5061024460048036038101908080359060200190929190505050610a5d565b6040518089815260200188815260200187815260200186815260200180602001806020018573ffffffffffffffffffffffffffffffffffffffff1673ffffffffffffffffffffffffffffffffffffffff1681526020018473ffffffffffffffffffffffffffffffffffffffff1673ffffffffffffffffffffffffffffffffffffffff168152602001838103835287818151815260200191508051906020019080838360005b838110156103045780820151818401526020810190506102e9565b50505050905090810190601f1680156103315780820380516001836020036101000a031916815260200191505b50838103825286818151815260200191508051906020019080838360005b8381101561036a57808201518184015260208101905061034f565b50505050905090810190601f1680156103975780820380516001836020036101000a031916815260200191505b509a505050505050505050505060405180910390f35b3480156103b957600080fd5b506103c2610c24565b6040518082815260200191505060405180910390f35b3480156103e457600080fd5b5061040360048036038101908080359060200190929190505050610c30565b005b34801561041157600080fd5b5061041a610d11565b604051808273ffffffffffffffffffffffffffffffffffffffff1673ffffffffffffffffffffffffffffffffffffffff16815260200191505060405180910390f35b610464610d37565b6000610100604051908101604052803481526020018781526020018681526020018581526020018481526020016040805190810160405280600981526020017f726571756573746564000000000000000000000000000000000000000000000081525081526020013373ffffffffffffffffffffffffffffffffffffffff168152602001600073ffffffffffffffffffffffffffffffffffffffff168152509150600160008390806001815401808255809150509060018203906000526020600020906008020160009091929091909150600082015181600001556020820151816001015560408201518160020155606082015181600301556080820151816004019080519060200190610579929190610da9565b5060a0820151816005019080519060200190610596929190610da9565b5060c08201518160060160006101000a81548173ffffffffffffffffffffffffffffffffffffffff021916908373ffffffffffffffffffffffffffffffffffffffff16021790555060e08201518160070160006101000a81548173ffffffffffffffffffffffffffffffffffffffff021916908373ffffffffffffffffffffffffffffffffffffffff1602179055505050039050505050505050565b61063a610d37565b600061010060405190810160405280600081526020018781526020018681526020018581526020018481526020016040805190810160405280600981526020017f72657175657374656400000000000000000000000000000000000000000000008152508152602001600073ffffffffffffffffffffffffffffffffffffffff1681526020013373ffffffffffffffffffffffffffffffffffffffff168152509150600160008390806001815401808255809150509060018203906000526020600020906008020160009091929091909150600082015181600001556020820151816001015560408201518160020155606082015181600301556080820151816004019080519060200190610750929190610da9565b5060a082015181600501908051906020019061076d929190610da9565b5060c08201518160060160006101000a81548173ffffffffffffffffffffffffffffffffffffffff021916908373ffffffffffffffffffffffffffffffffffffffff16021790555060e08201518160070160006101000a81548173ffffffffffffffffffffffffffffffffffffffff021916908373ffffffffffffffffffffffffffffffffffffffff1602179055505050039050505050505050565b6000808281548110151561081957fe5b906000526020600020906008020190506040805190810160405280600881526020017f6163636570746564000000000000000000000000000000000000000000000000815250816005019080519060200190610876929190610e29565b50338160070160006101000a81548173ffffffffffffffffffffffffffffffffffffffff021916908373ffffffffffffffffffffffffffffffffffffffff1602179055505050565b600080828154811015156108ce57fe5b906000526020600020906008020190506040805190810160405280600981526020017f63616e63656c6c6564000000000000000000000000000000000000000000000081525081600501908051906020019061092b929190610e29565b508060060160009054906101000a900473ffffffffffffffffffffffffffffffffffffffff1673ffffffffffffffffffffffffffffffffffffffff166108fc82600001549081150290604051600060405180830381858888f1935050505015801561099a573d6000803e3d6000fd5b505050565b600080828154811015156109af57fe5b906000526020600020906008020190506040805190810160405280600881526020017f6163636570746564000000000000000000000000000000000000000000000000815250816005019080519060200190610a0c929190610e29565b50338160060160006101000a81548173ffffffffffffffffffffffffffffffffffffffff021916908373ffffffffffffffffffffffffffffffffffffffff1602179055503481600001819055505050565b600081815481101515610a6c57fe5b9060005260206000209060080201600091509050806000015490806001015490806002015490806003015490806004018054600181600116156101000203166002900480601f016020809104026020016040519081016040528092919081815260200182805460018160011615610100020316600290048015610b305780601f10610b0557610100808354040283529160200191610b30565b820191906000526020600020905b815481529060010190602001808311610b1357829003601f168201915b505050505090806005018054600181600116156101000203166002900480601f016020809104026020016040519081016040528092919081815260200182805460018160011615610100020316600290048015610bce5780601f10610ba357610100808354040283529160200191610bce565b820191906000526020600020905b815481529060010190602001808311610bb157829003601f168201915b5050505050908060060160009054906101000a900473ffffffffffffffffffffffffffffffffffffffff16908060070160009054906101000a900473ffffffffffffffffffffffffffffffffffffffff16905088565b60008080549050905090565b60008082815481101515610c4057fe5b906000526020600020906008020190506040805190810160405280600981526020017f636f6d706c657465640000000000000000000000000000000000000000000000815250816005019080519060200190610c9d929190610e29565b508060070160009054906101000a900473ffffffffffffffffffffffffffffffffffffffff1673ffffffffffffffffffffffffffffffffffffffff166108fc82600001549081150290604051600060405180830381858888f19350505050158015610d0c573d6000803e3d6000fd5b505050565b600160009054906101000a900473ffffffffffffffffffffffffffffffffffffffff1681565b61010060405190810160405280600081526020016000815260200160008152602001600081526020016060815260200160608152602001600073ffffffffffffffffffffffffffffffffffffffff168152602001600073ffffffffffffffffffffffffffffffffffffffff1681525090565b828054600181600116156101000203166002900490600052602060002090601f016020900481019282601f10610dea57805160ff1916838001178555610e18565b82800160010185558215610e18579182015b82811115610e17578251825591602001919060010190610dfc565b5b509050610e259190610ea9565b5090565b828054600181600116156101000203166002900490600052602060002090601f016020900481019282601f10610e6a57805160ff1916838001178555610e98565b82800160010185558215610e98579182015b82811115610e97578251825591602001919060010190610e7c565b5b509050610ea59190610ea9565b5090565b610ecb91905b80821115610ec7576000816000905550600101610eaf565b5090565b905600a165627a7a7230582067476720d3b358ded8cc3b7a96158fdf2e0b0ffefaafdb4ce3c7aecdbd01640d0029",
  "source": "pragma solidity ^0.4.2;\n\ncontract Business {\n    struct Order {\n        uint payment;\n        uint productId;\n        uint quantity;\n        uint price;\n        string unit;\n        string status;\n        address buyer;\n        address seller;\n    }\n\n    Order[] public orders;\n    address public admin;\n\n    constructor() public {\n        admin = msg.sender;\n    }\n\n    modifier restricted() {\n        require(msg.sender == admin);\n        _;\n    }\n\n    function getOrdersCount() public view returns (uint) {\n        return orders.length;\n    }\n\n    function createBid(uint productId, uint quantity, uint price, string unit) public payable {\n        Order memory bid = Order({\n            payment: msg.value,\n            productId: productId,\n            quantity: quantity,\n            price: price,\n            unit: unit,\n            status: \"requested\",\n            buyer: msg.sender,\n            seller: 0x0000\n        });\n        uint id = orders.push(bid) - 1;\n    }\n\n    function acceptBid(uint id) public {\n        Order storage bid = orders[id];\n        bid.status = \"accepted\";\n        bid.seller = msg.sender;\n    }\n\n    function createQuote(uint productId, uint quantity, uint price, string unit) public {\n        Order memory quote = Order({\n            payment: 0,\n            productId: productId,\n            quantity: quantity,\n            price: price,\n            unit: unit,\n            status: \"requested\",\n            buyer: 0x0000,\n            seller: msg.sender\n        });\n        uint id = orders.push(quote) - 1;\n    }\n\n    function acceptQuote(uint id) public payable {\n        Order storage quote = orders[id];\n        quote.status = \"accepted\";\n        quote.buyer = msg.sender;\n        quote.payment = msg.value;\n    }\n\n    function completeOrder(uint id) public {\n        Order storage order = orders[id];\n        order.status = \"completed\";\n        order.seller.transfer(order.payment);\n    }\n\n    function cancelOrder(uint id) public {\n        Order storage order = orders[id];\n        order.status = \"cancelled\";\n        order.buyer.transfer(order.payment);\n    }\n}\n",
  "sourcePath": "/Users/aliceluong/fullstack/blockchain/supply-lynx/contracts/Business.sol",
  "compiler": {
    "name": "solc",
    "version": "0.4.24+commit.e67f0147.Emscripten.clang"
  },
  "schemaVersion": "2.0.0",
  "updatedAt": "2018-06-14T16:09:31.544Z"
}