{
  "contractName": "Business",
  "abi": [
    {
      "constant": true,
      "inputs": [
        {
          "name": "",
          "type": "uint256"
        }
      ],
      "name": "orders",
      "outputs": [
        {
          "name": "payment",
          "type": "uint256"
        },
        {
          "name": "productId",
          "type": "uint256"
        },
        {
          "name": "quantity",
          "type": "uint256"
        },
        {
          "name": "price",
          "type": "uint256"
        },
        {
          "name": "unit",
          "type": "string"
        },
        {
          "name": "requested",
          "type": "bool"
        },
        {
          "name": "accepted",
          "type": "bool"
        },
        {
          "name": "completed",
          "type": "bool"
        },
        {
          "name": "buyer",
          "type": "address"
        },
        {
          "name": "seller",
          "type": "address"
        }
      ],
      "payable": false,
      "stateMutability": "view",
      "type": "function"
    },
    {
      "anonymous": false,
      "inputs": [
        {
          "indexed": false,
          "name": "id",
          "type": "uint256"
        },
        {
          "indexed": false,
          "name": "payment",
          "type": "uint256"
        },
        {
          "indexed": false,
          "name": "productId",
          "type": "uint256"
        },
        {
          "indexed": false,
          "name": "quantity",
          "type": "uint256"
        },
        {
          "indexed": false,
          "name": "price",
          "type": "uint256"
        },
        {
          "indexed": false,
          "name": "unit",
          "type": "string"
        },
        {
          "indexed": false,
          "name": "requested",
          "type": "bool"
        },
        {
          "indexed": false,
          "name": "accepted",
          "type": "bool"
        },
        {
          "indexed": false,
          "name": "completed",
          "type": "bool"
        },
        {
          "indexed": false,
          "name": "buyer",
          "type": "address"
        },
        {
          "indexed": false,
          "name": "seller",
          "type": "address"
        }
      ],
      "name": "OrderLog",
      "type": "event"
    },
    {
      "constant": true,
      "inputs": [],
      "name": "getOrdersCount",
      "outputs": [
        {
          "name": "",
          "type": "uint256"
        }
      ],
      "payable": false,
      "stateMutability": "view",
      "type": "function"
    },
    {
      "constant": false,
      "inputs": [
        {
          "name": "productId",
          "type": "uint256"
        },
        {
          "name": "quantity",
          "type": "uint256"
        },
        {
          "name": "price",
          "type": "uint256"
        },
        {
          "name": "unit",
          "type": "string"
        }
      ],
      "name": "createBid",
      "outputs": [],
      "payable": true,
      "stateMutability": "payable",
      "type": "function"
    },
    {
      "constant": false,
      "inputs": [
        {
          "name": "id",
          "type": "uint256"
        }
      ],
      "name": "acceptBid",
      "outputs": [],
      "payable": false,
      "stateMutability": "nonpayable",
      "type": "function"
    },
    {
      "constant": false,
      "inputs": [
        {
          "name": "productId",
          "type": "uint256"
        },
        {
          "name": "quantity",
          "type": "uint256"
        },
        {
          "name": "price",
          "type": "uint256"
        },
        {
          "name": "unit",
          "type": "string"
        }
      ],
      "name": "createQuote",
      "outputs": [],
      "payable": false,
      "stateMutability": "nonpayable",
      "type": "function"
    },
    {
      "constant": false,
      "inputs": [
        {
          "name": "id",
          "type": "uint256"
        }
      ],
      "name": "acceptQuote",
      "outputs": [],
      "payable": true,
      "stateMutability": "payable",
      "type": "function"
    },
    {
      "constant": false,
      "inputs": [
        {
          "name": "id",
          "type": "uint256"
        }
      ],
      "name": "completeOrder",
      "outputs": [],
      "payable": false,
      "stateMutability": "nonpayable",
      "type": "function"
    }
  ],
  "bytecode": "0x608060405234801561001057600080fd5b50611597806100206000396000f300608060405260043610610083576000357c0100000000000000000000000000000000000000000000000000000000900463ffffffff1680630830e496146100885780631312ec4a146101025780632b1fd58a146101895780635d7ffe7b146101b6578063a85c38ef146101d6578063b5b3b0511461031f578063b6adaaff1461034a575b600080fd5b610100600480360381019080803590602001909291908035906020019092919080359060200190929190803590602001908201803590602001908080601f0160208091040260200160405190810160405280939291908181526020018383808284378201915050505050509192919290505050610377565b005b34801561010e57600080fd5b50610187600480360381019080803590602001909291908035906020019092919080359060200190929190803590602001908201803590602001908080601f01602080910402602001604051908101604052809392919081815260200183838082843782019150505050505091929192905050506106ec565b005b34801561019557600080fd5b506101b460048036038101908080359060200190929190505050610a62565b005b6101d460048036038101908080359060200190929190505050610d40565b005b3480156101e257600080fd5b5061020160048036038101908080359060200190929190505050611027565b604051808b81526020018a8152602001898152602001888152602001806020018715151515815260200186151515158152602001851515151581526020018473ffffffffffffffffffffffffffffffffffffffff1673ffffffffffffffffffffffffffffffffffffffff1681526020018373ffffffffffffffffffffffffffffffffffffffff1673ffffffffffffffffffffffffffffffffffffffff168152602001828103825288818151815260200191508051906020019080838360005b838110156102db5780820151818401526020810190506102c0565b50505050905090810190601f1680156103085780820380516001836020036101000a031916815260200191505b509b50505050505050505050505060405180910390f35b34801561032b57600080fd5b50610334611189565b6040518082815260200191505060405180910390f35b34801561035657600080fd5b5061037560048036038101908080359060200190929190505050611195565b005b61037f611440565b6000610140604051908101604052803481526020018781526020018681526020018581526020018481526020016001151581526020016000151581526020016000151581526020013373ffffffffffffffffffffffffffffffffffffffff168152602001600073ffffffffffffffffffffffffffffffffffffffff1681525091506001600083908060018154018082558091505090600182039060005260206000209060070201600090919290919091506000820151816000015560208201518160010155604082015181600201556060820151816003015560808201518160040190805190602001906104749291906114c6565b5060a08201518160050160006101000a81548160ff02191690831515021790555060c08201518160050160016101000a81548160ff02191690831515021790555060e08201518160050160026101000a81548160ff0219169083151502179055506101008201518160050160036101000a81548173ffffffffffffffffffffffffffffffffffffffff021916908373ffffffffffffffffffffffffffffffffffffffff1602179055506101208201518160060160006101000a81548173ffffffffffffffffffffffffffffffffffffffff021916908373ffffffffffffffffffffffffffffffffffffffff16021790555050500390507f901753688252d4ac5068d85cba5d5214d01c46c1fc4544f9a637c04fcefc6ca281836000015184602001518560400151866060015187608001518860a001518960c001518a60e001518b61010001518c6101200151604051808c81526020018b81526020018a8152602001898152602001888152602001806020018715151515815260200186151515158152602001851515151581526020018473ffffffffffffffffffffffffffffffffffffffff1673ffffffffffffffffffffffffffffffffffffffff1681526020018373ffffffffffffffffffffffffffffffffffffffff1673ffffffffffffffffffffffffffffffffffffffff168152602001828103825288818151815260200191508051906020019080838360005b838110156106a0578082015181840152602081019050610685565b50505050905090810190601f1680156106cd5780820380516001836020036101000a031916815260200191505b509c5050505050505050505050505060405180910390a1505050505050565b6106f4611440565b60006101406040519081016040528060008152602001878152602001868152602001858152602001848152602001600115158152602001600015158152602001600015158152602001600073ffffffffffffffffffffffffffffffffffffffff1681526020013373ffffffffffffffffffffffffffffffffffffffff1681525091506001600083908060018154018082558091505090600182039060005260206000209060070201600090919290919091506000820151816000015560208201518160010155604082015181600201556060820151816003015560808201518160040190805190602001906107ea9291906114c6565b5060a08201518160050160006101000a81548160ff02191690831515021790555060c08201518160050160016101000a81548160ff02191690831515021790555060e08201518160050160026101000a81548160ff0219169083151502179055506101008201518160050160036101000a81548173ffffffffffffffffffffffffffffffffffffffff021916908373ffffffffffffffffffffffffffffffffffffffff1602179055506101208201518160060160006101000a81548173ffffffffffffffffffffffffffffffffffffffff021916908373ffffffffffffffffffffffffffffffffffffffff16021790555050500390507f901753688252d4ac5068d85cba5d5214d01c46c1fc4544f9a637c04fcefc6ca281836000015184602001518560400151866060015187608001518860a001518960c001518a60e001518b61010001518c6101200151604051808c81526020018b81526020018a8152602001898152602001888152602001806020018715151515815260200186151515158152602001851515151581526020018473ffffffffffffffffffffffffffffffffffffffff1673ffffffffffffffffffffffffffffffffffffffff1681526020018373ffffffffffffffffffffffffffffffffffffffff1673ffffffffffffffffffffffffffffffffffffffff168152602001828103825288818151815260200191508051906020019080838360005b83811015610a165780820151818401526020810190506109fb565b50505050905090810190601f168015610a435780820380516001836020036101000a031916815260200191505b509c5050505050505050505050505060405180910390a1505050505050565b60008082815481101515610a7257fe5b906000526020600020906007020190508060050160039054906101000a900473ffffffffffffffffffffffffffffffffffffffff1673ffffffffffffffffffffffffffffffffffffffff163373ffffffffffffffffffffffffffffffffffffffff1614151515610ae157600080fd5b60018160050160016101000a81548160ff021916908315150217905550338160060160006101000a81548173ffffffffffffffffffffffffffffffffffffffff021916908373ffffffffffffffffffffffffffffffffffffffff1602179055507f901753688252d4ac5068d85cba5d5214d01c46c1fc4544f9a637c04fcefc6ca2828260000154836001015484600201548560030154866004018760050160009054906101000a900460ff168860050160019054906101000a900460ff168960050160029054906101000a900460ff168a60050160039054906101000a900473ffffffffffffffffffffffffffffffffffffffff168b60060160009054906101000a900473ffffffffffffffffffffffffffffffffffffffff16604051808c81526020018b81526020018a8152602001898152602001888152602001806020018715151515815260200186151515158152602001851515151581526020018473ffffffffffffffffffffffffffffffffffffffff1673ffffffffffffffffffffffffffffffffffffffff1681526020018373ffffffffffffffffffffffffffffffffffffffff1673ffffffffffffffffffffffffffffffffffffffff168152602001828103825288818154600181600116156101000203166002900481526020019150805460018160011615610100020316600290048015610d245780601f10610cf957610100808354040283529160200191610d24565b820191906000526020600020905b815481529060010190602001808311610d0757829003601f168201915b50509c5050505050505050505050505060405180910390a15050565b60008082815481101515610d5057fe5b906000526020600020906007020190508060060160009054906101000a900473ffffffffffffffffffffffffffffffffffffffff1673ffffffffffffffffffffffffffffffffffffffff163373ffffffffffffffffffffffffffffffffffffffff1614151515610dbf57600080fd5b60018160050160016101000a81548160ff021916908315150217905550338160050160036101000a81548173ffffffffffffffffffffffffffffffffffffffff021916908373ffffffffffffffffffffffffffffffffffffffff1602179055503481600001819055507f901753688252d4ac5068d85cba5d5214d01c46c1fc4544f9a637c04fcefc6ca2828260000154836001015484600201548560030154866004018760050160009054906101000a900460ff168860050160019054906101000a900460ff168960050160029054906101000a900460ff168a60050160039054906101000a900473ffffffffffffffffffffffffffffffffffffffff168b60060160009054906101000a900473ffffffffffffffffffffffffffffffffffffffff16604051808c81526020018b81526020018a8152602001898152602001888152602001806020018715151515815260200186151515158152602001851515151581526020018473ffffffffffffffffffffffffffffffffffffffff1673ffffffffffffffffffffffffffffffffffffffff1681526020018373ffffffffffffffffffffffffffffffffffffffff1673ffffffffffffffffffffffffffffffffffffffff16815260200182810382528881815460018160011615610100020316600290048152602001915080546001816001161561010002031660029004801561100b5780601f10610fe05761010080835404028352916020019161100b565b820191906000526020600020905b815481529060010190602001808311610fee57829003601f168201915b50509c5050505050505050505050505060405180910390a15050565b60008181548110151561103657fe5b9060005260206000209060070201600091509050806000015490806001015490806002015490806003015490806004018054600181600116156101000203166002900480601f0160208091040260200160405190810160405280929190818152602001828054600181600116156101000203166002900480156110fa5780601f106110cf576101008083540402835291602001916110fa565b820191906000526020600020905b8154815290600101906020018083116110dd57829003601f168201915b5050505050908060050160009054906101000a900460ff16908060050160019054906101000a900460ff16908060050160029054906101000a900460ff16908060050160039054906101000a900473ffffffffffffffffffffffffffffffffffffffff16908060060160009054906101000a900473ffffffffffffffffffffffffffffffffffffffff1690508a565b60008080549050905090565b600080828154811015156111a557fe5b9060005260206000209060070201905060018160050160026101000a81548160ff0219169083151502179055508060060160009054906101000a900473ffffffffffffffffffffffffffffffffffffffff1673ffffffffffffffffffffffffffffffffffffffff166108fc82600001549081150290604051600060405180830381858888f19350505050158015611240573d6000803e3d6000fd5b507f901753688252d4ac5068d85cba5d5214d01c46c1fc4544f9a637c04fcefc6ca2828260000154836001015484600201548560030154866004018760050160009054906101000a900460ff168860050160019054906101000a900460ff168960050160029054906101000a900460ff168a60050160039054906101000a900473ffffffffffffffffffffffffffffffffffffffff168b60060160009054906101000a900473ffffffffffffffffffffffffffffffffffffffff16604051808c81526020018b81526020018a8152602001898152602001888152602001806020018715151515815260200186151515158152602001851515151581526020018473ffffffffffffffffffffffffffffffffffffffff1673ffffffffffffffffffffffffffffffffffffffff1681526020018373ffffffffffffffffffffffffffffffffffffffff1673ffffffffffffffffffffffffffffffffffffffff1681526020018281038252888181546001816001161561010002031660029004815260200191508054600181600116156101000203166002900480156114245780601f106113f957610100808354040283529160200191611424565b820191906000526020600020905b81548152906001019060200180831161140757829003601f168201915b50509c5050505050505050505050505060405180910390a15050565b610140604051908101604052806000815260200160008152602001600081526020016000815260200160608152602001600015158152602001600015158152602001600015158152602001600073ffffffffffffffffffffffffffffffffffffffff168152602001600073ffffffffffffffffffffffffffffffffffffffff1681525090565b828054600181600116156101000203166002900490600052602060002090601f016020900481019282601f1061150757805160ff1916838001178555611535565b82800160010185558215611535579182015b82811115611534578251825591602001919060010190611519565b5b5090506115429190611546565b5090565b61156891905b8082111561156457600081600090555060010161154c565b5090565b905600a165627a7a72305820bcd8f5f2bfaeef9ec5827ff8cf4cabd80597849a9ffd7454a14e3c659fcb28fa0029",
  "source": "pragma solidity ^0.4.2;\n\ncontract Business {\n    event OrderLog (\n        uint id,\n        uint payment,\n        uint productId,\n        uint quantity,\n        uint price,\n        string unit,\n        bool requested,\n        bool accepted,\n        bool completed,\n        address buyer,\n        address seller\n    );\n\n    struct Order {\n        uint payment;\n        uint productId;\n        uint quantity;\n        uint price;\n        string unit;\n        bool requested;\n        bool accepted;\n        bool completed;\n        address buyer;\n        address seller;\n    }\n\n    Order[] public orders;\n\n    function getOrdersCount() public view returns (uint) {\n        return orders.length;\n    }\n\n    function createBid(uint productId, uint quantity, uint price, string unit) public payable {\n        Order memory bid = Order({\n            payment: msg.value,\n            productId: productId,\n            quantity: quantity,\n            price: price,\n            unit: unit,\n            requested: true,\n            accepted: false,\n            completed: false,\n            buyer: msg.sender,\n            seller: 0x0000\n        });\n        uint id = orders.push(bid) - 1;\n        emit OrderLog(\n            id,\n            bid.payment,\n            bid.productId,\n            bid.quantity,\n            bid.price,\n            bid.unit,\n            bid.requested,\n            bid.accepted,\n            bid.completed,\n            bid.buyer,\n            bid.seller\n        );\n    }\n\n    function acceptBid(uint id) public {\n        Order storage bid = orders[id];\n        require(msg.sender != bid.buyer);\n        bid.accepted = true;\n        bid.seller = msg.sender;\n        emit OrderLog(\n            id,\n            bid.payment,\n            bid.productId,\n            bid.quantity,\n            bid.price,\n            bid.unit,\n            bid.requested,\n            bid.accepted,\n            bid.completed,\n            bid.buyer,\n            bid.seller\n        );\n    }\n\n    function createQuote(uint productId, uint quantity, uint price, string unit) public {\n        Order memory quote = Order({\n            payment: 0,\n            productId: productId,\n            quantity: quantity,\n            price: price,\n            unit: unit,\n            requested: true,\n            accepted: false,\n            completed: false,\n            buyer: 0x0000,\n            seller: msg.sender\n        });\n        uint id = orders.push(quote) - 1;\n        emit OrderLog(\n            id,\n            quote.payment,\n            quote.productId,\n            quote.quantity,\n            quote.price,\n            quote.unit,\n            quote.requested,\n            quote.accepted,\n            quote.completed,\n            quote.buyer,\n            quote.seller\n        );\n    }\n\n    function acceptQuote(uint id) public payable {\n        Order storage quote = orders[id];\n        require(msg.sender != quote.seller);\n        quote.accepted = true;\n        quote.buyer = msg.sender;\n        quote.payment = msg.value;\n        emit OrderLog(\n            id,\n            quote.payment,\n            quote.productId,\n            quote.quantity,\n            quote.price,\n            quote.unit,\n            quote.requested,\n            quote.accepted,\n            quote.completed,\n            quote.buyer,\n            quote.seller\n        );\n    }\n\n    function completeOrder(uint id) public {\n        Order storage order = orders[id];\n        order.completed = true;\n        order.seller.transfer(order.payment);\n        emit OrderLog(\n            id,\n            order.payment,\n            order.productId,\n            order.quantity,\n            order.price,\n            order.unit,\n            order.requested,\n            order.accepted,\n            order.completed,\n            order.buyer,\n            order.seller\n        );\n    }\n}\n",
  "sourcePath": "/Users/marcopchen/supply-lynx/contracts/Business.sol",
  "compiler": {
    "name": "solc",
    "version": "0.4.24+commit.e67f0147.Emscripten.clang"
  },
  "schemaVersion": "2.0.0",
  "updatedAt": "2018-06-04T02:31:39.748Z"
}